S00B00005254432E7372656330
S11300000C942A000C9447000C9447000C9447006D
S11300100C9447000C94AD060C9447000C944700D4
S11300200C9447000C9447000C9447000C94470030
S11300300C9447000C9447000C9447000C94470020
S11300400C9447000C9447000C9447000C94470010
S11300500C94470011241FBECFE5D8E0DEBFCDBF0E
S113006010E0A0E6B0E0E0E9F4E102C005900D92F2
S1130070A63AB107D9F710E0A6EAB0E001C01D9294
S1130080AC3AB107E1F70E94B2040C94460A0C940E
S11300900000683008F090C0843409F471C08534DD
S11300A048F4823499F1833408F04DC0813409F066
S11300B083C00FC0823651F1833620F4813609F0B3
S11300C07BC007C0833609F43EC0843609F074C08F
S11300D057C0413069F42AB381E090E0AC0102C01A
S11300E0440F551F6A95E2F7BA01622B6ABB089563
S11300F02AB381E090E0AC0102C0440F551F6A9519
S1130100E2F7BA01609562236ABB0895413069F44D
S113011027B381E090E0AC0102C0440F551F6A95FB
S1130120E2F7BA01622B67BB089527B381E090E040
S1130130AC0102C0440F551F6A95E2F7BA016095FD
S1130140622367BB0895413069F424B381E090E0F1
S1130150AC0102C0440F551F6A95E2F7BA01622B45
S113016064BB089524B381E090E0AC0102C0440F65
S1130170551F6A95E2F7BA016095622364BB08953E
S1130180413069F421B381E090E0AC0102C0440F36
S1130190551F6A95E2F7BA01622B61BB089521B33A
S11301A081E090E0AC0102C0440F551F6A95E2F76C
S11301B0BA016095622361BB0895683008F090C06D
S11301C0843409F471C0853448F4823499F1833459
S11301D008F04DC0813409F083C00FC0823651F15C
S11301E0833620F4813609F07BC007C0833609F4D6
S11301F03EC0843609F074C057C0413069F42BB353
S113020081E090E0AC0102C0440F551F6A95E2F70B
S1130210BA01622B6BBB08952BB381E090E0AC0173
S113022002C0440F551F6A95E2F7BA016095622334
S11302306BBB0895413069F428B381E090E0AC01D0
S113024002C0440F551F6A95E2F7BA01622B68BBDE
S1130250089528B381E090E0AC0102C0440F551F1B
S11302606A95E2F7BA016095622368BB089541304C
S113027069F425B381E090E0AC0102C0440F551F3E
S11302806A95E2F7BA01622B65BB089525B381E054
S113029090E0AC0102C0440F551F6A95E2F7BA0121
S11302A06095622365BB0895413069F422B381E00F
S11302B090E0AC0102C0440F551F6A95E2F7BA0101
S11302C0622B62BB089522B381E090E0AC0102C0CE
S11302D0440F551F6A95E2F7BA016095622362BB29
S11302E00895683008F04CC0843409F43DC0853466
S11302F040F48234F9F0833450F5813409F040C07D
S11303000CC08236B9F0833618F48136C9F505C0BD
S11303108336E9F08436A1F527C02BB381E090E061
S1130320AC0102C0440F551F6A95E2F7BA01622777
S11303306BBB089528B381E090E0AC0102C0440F88
S1130340551F6A95E2F7BA01622768BB089525B381
S113035081E090E0AC0102C0440F551F6A95E2F7BA
S1130360BA01622765BB089522B381E090E0AC0135
S113037002C0440F551F6A95E2F7BA01622762BBB7
S11303800895683008F03FC0843499F1853438F416
S11303908234D9F0833418F58134B9F50CC082362F
S11303A0A1F0833618F4813681F505C08336B9F09F
S11303B0843659F51EC029B330E0C90102C09595B1
S11303C087956A95E2F78170089526B330E0C901F4
S11303D002C0959587956A95E2F78170089523B3D5
S11303E030E0C90102C0959587956A95E2F781705E
S11303F0089520B330E0C90102C0959587956A95A8
S1130400E2F78170089580E0089580E008958434CF
S1130410D9F0853438F4823499F0833498F48134F3
S1130420A1F40CC0823661F0833618F4813669F485
S113043005C0833639F0843641F406C06ABB08959A
S113044067BB089564BB089561BB08958434D9F0F3
S1130450853438F4823499F0833498F48134A1F4E7
S11304600CC0823661F0833618F4813669F405C015
S1130470833639F0843641F406C06BBB089568BBFB
S1130480089565BB089562BB08958434D9F085341A
S113049038F4823499F0833498F48134A1F40CC094
S11304A0823661F0833618F4813669F405C08336E8
S11304B039F0843641F406C099B305C096B303C03D
S11304C093B301C090B3892F0895843409F185341E
S11304D038F48234A9F08334B8F48134E1F40CC0E4
S11304E0823671F0833618F48136A9F405C0833658
S11304F059F0843681F40CC08BB380958BBB08957E
S113050088B3809588BB089585B3809585BB08958D
S113051082B3809582BB08956295607F843451F1E3
S1130520853438F48234C1F08334E8F4813441F5FD
S11305300CC0823689F0833618F4813609F505C07B
S1130540833689F08436E1F415C08BB38F708BBB8E
S11305508BB3682B6BBB089588B38F7088BB88B34B
S1130560682B68BB089585B38F7085BB85B3682BF2
S113057065BB089582B38F7082BB82B3682B62BB64
S113058008956F70843451F1853438F48234C1F0A5
S11305908334E8F4813441F50CC0823689F0833623
S11305A018F4813609F505C0833689F08436E1F400
S11305B015C08BB3807F8BBB8BB3682B6BBB08954B
S11305C088B3807F88BB88B3682B68BB089585B3E4
S11305D0807F85BB85B3682B65BB089582B3807F1C
S11305E082BB82B3682B62BB08950E94DD0008952C
S11305F00E94C101089582E46FE00E94070282E430
S113060064E041E00E94F50282E465E041E00E947A
S1130610F50282E466E041E00E94F50282E467E0CC
S113062041E00E94F5020895EF92FF921F93CF9349
S1130630DF93CDB7DEB760970FB6F894DEBF0FBE79
S1130640CDBFDE011196E0E6F0E080E101900D926D
S11306508150E1F7EE24FF2482E460E041E00E944F
S1130660DD0082E461E041E00E94DD0082E462E0BA
S113067041E00E94DD0082E463E041E00E94DD008D
S113068082E46E2D40E00E94DD0010E0612F6C5F7B
S113069082E40E94F802882389F4F701EE0FFF1F19
S11306A0EE0FFF1FE10FF11D81E090E08C0F9D1F05
S11306B0E80FF91F80818F3F21F00BC01F5F1430BA
S11306C029F70894E11CF11C94E0E916F10421F6E1
S11306D08FEF60960FB6F894DEBF0FBECDBFDF91EB
S11306E0CF911F91FF90EF9008950E9414038F3FC4
S11306F011F080530895089581E462E041E00E947E
S1130700490081E462E040E00E94DD008FE99FE05F
S11307100197F1F700C0000081E462E041E00E942B
S1130720DD008FE19EE40197F1F700C0000081E451
S113073062E040E00E94DD008FE097E20197F1F76C
S113074000C000000895CF93DF93D82FC62F81E413
S113075060E040E00E94DD0081E461E040E00E944E
S1130760DD00CC2389F0C130E9F46D2F62956F7000
S113077081E40E948C020E947C0381E46D2F0E941C
S11307808C020E947C030EC06D2F62956F7081E411
S11307900E94C1020E947C0381E46D2F0E94C10269
S11307A00E947C03DF91CF9108952FE738E341E065
S11307B0215030404040E1F700C00000882319F088
S11307C0813051F515C081E460E041E00E944900A8
S11307D081E461E041E00E94490081E462E041E09B
S11307E00E94490081E463E041E00E94490014C092
S11307F081E464E041E00E94490081E465E041E075
S11308000E94490081E466E041E00E94490081E4DD
S113081067E041E00E94490081E461E041E00E9418
S1130820490081E460E041E00E94490081E462E023
S113083041E00E94490081E461E040E00E94DD0063
S113084082E061E00E94A3038FE19EE40197F1F747
S113085000C0000088E261E00E94A3038FE097E2F9
S11308600197F1F700C000008EE061E00E94A3034D
S11308708FE097E20197F1F700C0000081E061E0AA
S11308800E94A3038FE19EE40197F1F700C00000EA
S113089086E061E00E94A3038FE097E20197F1F7FD
S11308A000C000000895CF93DF93D82FC62F81E4B2
S11308B060E041E00E94DD0081E461E040E00E94EC
S11308C0DD00CC2389F0C130E9F46D2F62956F709F
S11308D081E40E948C020E947C0381E46D2F0E94BB
S11308E08C020E947C030EC06D2F62956F7081E4B0
S11308F00E94C1020E947C0381E46D2F0E94C10208
S11309000E947C03DF91CF910895CF93DF93EC0194
S11309108881882339F0219661E00E9453048991EB
S11309208823D1F7DF91CF910895982F9150923079
S113093020F4662311F0613128F080E861E00E9420
S1130940A3030895813031F4862F815861E00E9419
S1130950A3030895823029F4862F815461E00E9414
S1130960A303089581E00E94D50384E40E9437071D
S11309700E94FB0284E460E041E00E94490084E4B8
S113098061E041E00E94490084E462E041E00E94A9
S1130990490081E062E00E94950480E790E00E94B3
S11309A0850480E065E00E94EA0881E00E942D0A47
S11309B080E00E9472090FE710E00F2EFEE8EF2E90
S11309C0F0E0FF2EF02DDFEF0F2EF0E7CF2EF0E05A
S11309D0DF2EF02DCAE00E9414038093AB00813314
S11309E009F0E3C081E061E00E94A30381E063E0D9
S11309F00E949504C8010E94850482E063E00E947D
S1130A009504C7010E94850482E063E00E94950476
S1130A108FEF91EEA4E081509040A040E1F700C038
S1130A2000000E9414038093AA008F3FD1F361E079
S1130A300E9453048091AA0080538093AA0082E00C
S1130A4064E00E9495048FEF91EEA4E08150904001
S1130A50A040E1F700C000000E9414038093A900A5
S1130A608F3FD1F361E00E9453049091A900905309
S1130A708091AA00880F282F220F220F820F890F3E
S1130A808093A600D093A900D093AA0082E068E0E6
S1130A900E9495048FEF91EEA4E081509040A04015
S1130AA0E1F700C000000E9414038093AA008F3F66
S1130AB0D1F361E00E9453048091AA008053809393
S1130AC0AA0082E069E00E9495048FEF91EEA4E011
S1130AD081509040A040E1F700C000000E94140340
S1130AE08093A9008F3FD1F361E00E945304909159
S1130AF0A90090538091AA00880F282F220F220F5B
S1130B00820F890F8093A700D093A900D093AA00E5
S1130B1082E06EE00E9495048FEF91EEA4E0815094
S1130B209040A040E1F700C000000E9414038093AD
S1130B30AA008F3FD1F361E00E9453048091AA0080
S1130B4080538093AA0082E06FE00E9495048FEFA7
S1130B5091EEA4E081509040A040E1F700C0000075
S1130B600E9414038093A9008F3FD1F361E00E9497
S1130B7053049091A90090538091AA00880F282FC4
S1130B80220F220F820F890F8093A800D093A9000F
S1130B90D093AA0081E061E00E94A30381E062E0B7
S1130BA00E949504C6010E94850484E460E041E04B
S1130BB00E94DD0084E461E040E00E94DD0084E402
S1130BC062E041E00E94DD008091A6006C2F0E944B
S1130BD03A0A482F84E461E00E948907AFE0B7E253
S1130BE01197F1F700C0000084E460E040E00E9447
S1130BF0DD0084E461E040E00E94DD0084E462E022
S1130C0041E00E94DD008091A6006C2F0E943A0A08
S1130C1084E461E0492F0E9489078FE097E20197FD
S1130C20F1F700C0000084E460E041E00E94DD00D0
S1130C3084E461E041E00E94DD0084E462E040E09D
S1130C400E94DD008091A7006C2F0E943A0A482F71
S1130C5084E461E00E948907AFE0B7E21197F1F7FD
S1130C6000C0000084E460E040E00E94DD0084E411
S1130C7061E041E00E94DD0084E462E040E00E9423
S1130C80DD008091A7006C2F0E943A0A84E461E0A1
S1130C90492F0E9489078FE097E20197F1F700C07E
S1130CA0000084E460E041E00E94DD0084E461E04F
S1130CB040E00E94DD0084E462E040E00E94DD0048
S1130CC08091A8006C2F0E943A0A482F84E461E0C6
S1130CD00E948907AFE0B7E21197F1F700C0000066
S1130CE084E460E040E00E94DD0084E461E040E0F0
S1130CF00E94DD0084E462E040E00E94DD00809117
S1130D00A8006C2F0E943A0A84E461E0492F0E94F3
S1130D1089078FE097E20197F1F700C00000809106
S1130D20A8008C3338F08091A7008F5F8093A700D0
S1130D301092A8008091A7008C3338F08091A6000F
S1130D408F5F8093A6001092A7008091A60088313F
S1130D5009F041CE1092A6003ECE1F920F920FB61C
S1130D600F9211248F938091A8008F5F8093A80025
S1130D708F910F900FBE0F901F90189584E40E94DE
S1130D800702089584E46FEF0E942602089584E424
S1130D9060E00E942602089584E40E94C2068FEF58
S1130DA091EEA4E081509040A040E1F700C0000023
S1130DB084E40E94C7068FEF91EEA4E08150904036
S1130DC0A040E1F700C00000089584E40E944502B9
S1130DD00895CF93DF93CDB7DEB72A970FB6F89473
S1130DE0DEBF0FBECDBFDE011196ECE9F0E09AE064
S1130DF001900D929150E1F7843439F1853438F43F
S1130E008234B9F08334D8F4813421F50CC08236AD
S1130E1081F0833618F48136E9F405C0833679F01D
S1130E208436C1F412C0FE01E60FF11D81818BBB33
S1130E3011C0FE01E60FF11D818188BB0BC0FE01CC
S1130E40E60FF11D818185BB05C0FE01E60FF11D92
S1130E50818182BB2A960FB6F894DEBF0FBECDBF48
S1130E60DF91CF91089584E40E94C101089584E440
S1130E7064E041E00E94490084E465E041E00E94AE
S1130E80490084E466E041E00E94490084E467E0AC
S1130E9041E00E94490084E464E041E00E94DD00F6
S1130EA084E465E041E00E94DD0084E466E041E022
S1130EB00E94DD0084E467E041E00E94DD000895C3
S1130EC084E460E041E00E94490084E461E041E0A0
S1130ED00E94490084E462E041E00E94490084E405
S1130EE063E041E00E94490084E460E041E00E9444
S1130EF0DD0084E461E041E00E94DD0084E462E01E
S1130F0041E00E94DD0084E463E041E00E94DD00F2
S1130F100895662309F444C0613009F079C04A3069
S1130F2008F076C0843499F1853440F48234E9F0D1
S1130F30833420F5813409F06BC00EC08236A9F0E9
S1130F40833620F4813609F063C006C08336B1F0DD
S1130F50843609F05DC01BC08BB38F708BBB429588
S1130F60407F8BB3482B4BBB089588B38F7088BBED
S1130F704295407F88B3482B48BB089585B38F7052
S1130F8085BB4295407F85B3482B45BB089582B30A
S1130F908F7082BB4295407F82B3482B42BB089539
S1130FA04A30B0F5843469F1853438F48234C9F0B8
S1130FB08334F8F4813461F50CC0823691F08336C1
S1130FC018F4813629F505C0833699F0843601F585
S1130FD018C08BB3807F8BBB8BB34F70482B4BBB3C
S1130FE0089588B3807F88BB88B34F70482B48BB73
S1130FF0089585B3807F85BB85B34F70482B45BB6F
S1131000089582B3807F82BB82B34F70482B42BB6A
S11310100895662339F0613051F484E448E00E9475
S11310208907089584E460E048E00E9489070895F0
S11310306623B9F0613049F584E464E040E00E943D
S1131040490084E465E040E00E94490084E466E0ED
S113105040E00E94490084E467E040E00E944900C7
S1131060089584E460E040E00E94490084E461E083
S113107040E00E94490084E462E040E00E944900AC
S113108084E463E040E00E9449000895662389F106
S1131090613009F05CC084E40E9409088FEF91EE8E
S11310A0A4E081509040A040E1F700C0000084E437
S11310B061E00E9418088FEF91EEA4E08150904007
S11310C0A040E1F700C0000084E464E041E00E9435
S11310D0490084E465E041E00E94490084E466E05C
S11310E041E00E94490084E467E041E00E94490035
S11310F0089584E460E00E9409088FEF91EEA4E073
S113110081509040A040E1F700C0000084E460E01A
S11311100E9418088FEF91EEA4E081509040A04007
S1131120E1F700C0000084E460E041E00E9449006F
S113113084E461E041E00E94490084E462E041E02B
S11311400E94490084E463E041E00E94490008955C
S1131150662309F16130E9F58434D9F0853438F433
S1131160823499F0833498F4813499F50CC0823632
S113117061F0833618F4813661F505C0833639F0A1
S1131180843639F506C08BB3089588B3089585B3C2
S1131190089582B308958434D9F0853438F48234C0
S11311A099F0833498F48134A1F40CC0823661F050
S11311B0833618F4813669F405C0833639F08436F1
S11311C041F406C08BB3089588B3089585B3089598
S11311D082B308958130A9F0813028F08230C1F0C3
S11311E08330E1F407C085B58F7B85BD85B5877FE6
S11311F085BD14C085B5806485BD85B5877F85BDF3
S11312000DC085B58F7B85BD85B5886085BD06C05D
S113121085B5806485BD85B5886085BD633081F101
S1131220643028F46130C1F0623000F50BC06530E1
S1131230D9F1653078F1663009F440C0673009F0BF
S113124050C046C085B58E7F85BD85B58D7F85BD73
S113125085B58B7F85BD089585B5816085BD85B5D0
S11312608D7F85BD85B58B7F85BD089585B58E7FC2
S113127085BD85B5826085BD85B58B7F85BD0895A7
S113128085B5816085BD85B5826085BD85B58B7F5B
S113129085BD089585B58E7F85BD85B58D7F85BD5A
S11312A085B5846085BD089585B5816085BD85B5A6
S11312B08D7F85BD85B5846085BD089585B58E7F98
S11312C085BD85B5826085BD85B5846085BD08957D
S11312D085B5816085BD85B5826085BD85B5846031
S11312E085BD08959FB790689FBF882319F081300A
S11312F041F404C089B7806489BF089589B78068C0
S113130089BF08958FB78F778FBF89B78F7B89BFC8
S113131089B78F7789BF0895863019F0873061F4D3
S113132007C098B79295969596959370917004C05E
S113133098B7991F9927991F892F089583BD0895F8
S113134084BD089585B5806885BD0895CF93C82F61
S113135084E467E041E00E944900C13071F0C1308B
S113136028F0C23089F0C330E1F415C085B58F7E12
S113137085BD85B58F7D85BD14C085B5806185BD6E
S113138085B58F7D85BD0DC085B58F7E85BD85B541
S1131390806285BD06C085B5806185BD85B58062E6
S11313A085BDCF910895CF93C82F84E467E041E0D1
S11313B00E944900C13071F0C13028F0C23089F078
S11313C0C330E1F415C085B58F7E85BD85B58F7DAD
S11313D085BD14C085B5806185BD85B58F7D85BD0E
S11313E00DC085B58F7E85BD85B5806285BD06C07F
S11313F085B5806185BD85B5806285BDCF91089531
S1131400CF93C82F84E467E041E00E944900C130D3
S113141071F0C13028F0C23089F0C330E1F415C056
S113142085B58F7E85BD85B58F7D85BD14C085B599
S1131430806185BD85B58F7D85BD0DC085B58F7EE9
S113144085BD85B5806285BD06C085B5806185BDD5
S113145085B5806285BDCF910895882319F08130C8
S113146041F404C082B5877F82BD089582B5886047
S113147082BD0895991B79E004C0991F961708F05E
S1131480961B881F7A95C9F780950895F894FFCF25
S11314903738392B3435362D3132332F2A30253D28
S11314A05052455353203120544F20534554004843
S11314B052203A204D494E203A20534543002D2DC9
S11314C0203A202D2D20203A202D2D003F065B4F61
S10914D0666D7D077F6FCD
S9030000FC
